:100000000C94FE000C9426010C9426010C947A06A4
:100010000C9456060C9432060C9426010C9426017E
:100020000C9426010C9426010C9426010C942601B4
:100030000C9426010C9426010C9426010C942601A4
:100040000C94E8050C9426010C9438040C941204CA
:100050000C9426010C9426010C9426010C94260184
:100060000C9426010C9426010000000024002700B7
:100070002A0000000000250028002B0000000008D6
:10008000000201000003040700000000000000005F
:1000900000000000230026002900040404040404D6
:1000A0000404020202020202030303030303010227
:1000B00004081020408001020408102001020408F6
:1000C00010204E414E494E495459494E46CDCCCC54
:1000D0003D0AD7233C17B7D13877CC2B329595E61C
:1000E000241FB14F0A000020410000C84200401CFC
:1000F0004620BCBE4CCA1B0E5AAEC59D7400407A49
:1001000010F35A00A0724E18090010A5D4E80000A0
:10011000E87648170000E40B54020000CA9A3B003E
:100120000000E1F505000080969800000040420FB5
:10013000000000A08601000000102700000000E879
:1001400003000000006400000000000A000000003E
:10015000000100000000002C76D888DC674F0823DF
:10016000DFC1DFAE59E1B1B796E5E3E453C63AE645
:1001700051997696E8E6C28426EB898C9B62ED4025
:100180007C6FFCEFBC9C9F40F2BAA56FA5F4900574
:100190005A2AF75C936B6CF9676DC11BFCE0E40DA8
:1001A00047FEF520E6B500D0ED902E03009435779C
:1001B000050080841E080000204E0A000000C80CC4
:1001C000333333330F986E12831141EF8D2114892D
:1001D0003BE65516CFFEE6DB18D1844B381BF77C87
:1001E0001D901DA4BBE424203284725E228100C9CC
:1001F000F124ECA1E53D2700F30DE80D11241FBE0D
:10020000CFEFD8E0DEBFCDBF11E0A0E0B1E0E8EA7B
:10021000FDE202C005900D92A433B107D9F722E0A8
:10022000A4E3B1E001C01D92AD34B207E1F710E0E4
:10023000CDEFD0E004C02197FE010E94870ECC3F95
:10024000D107C9F70E94D40A0C94C7160C94000079
:100250000895CF92DF92EF92FF920F931F93CF9367
:10026000DF936C017A018B01C0E0D0E0CE15DF0591
:1002700089F0D8016D918D01D601ED91FC9101902D
:10028000F081E02DC6010995892B11F47E0102C091
:100290002196ECCFC701DF91CF911F910F91FF9075
:1002A000EF90DF90CF900895FC01918D828D98178B
:1002B00061F0828DDF01A80FB11D5D968C91928D4A
:1002C0009F5F9F73928F90E008958FEF9FEF089547
:1002D000FC01918D828D981731F0828DE80FF11D10
:1002E000858D90E008958FEF9FEF0895FC01918D2B
:1002F000228D892F90E0805C9F4F821B91098F7324
:100300009927089581E891E00E94760121E0892BE8
:1003100009F420E0822F0895FC01848DDF01A80FED
:10032000B11DA35ABF4F2C91848D90E001968F731D
:100330009927848FA689B7892C93A089B1898C913C
:1003400080648C93938D848D981306C00288F38902
:10035000E02D80818F7D80830895EF92FF920F932F
:100360001F93CF93DF93EC0181E0888F9B8D8C8D61
:10037000981305C0E889F989808185FD24C0F62E8F
:100380000B8D10E00F5F1F4F0F731127E02E8C8D28
:10039000E8120CC00FB607FCFACFE889F989808112
:1003A00085FFF5CFCE010E948C01F1CF8B8DFE0130
:1003B000E80FF11DE35AFF4FF0820B8FEA89FB89AA
:1003C0008081806207C0EE89FF896083E889F989AE
:1003D00080818064808381E090E0DF91CF911F91E4
:1003E0000F91FF90EF900895CF93DF93EC01888DEC
:1003F0008823C9F0EA89FB89808185FD05C0A88929
:10040000B9898C9186FD0FC00FB607FCF5CF8081AE
:1004100085FFF2CFA889B9898C9185FFEDCFCE01F8
:100420000E948C01E7CFDF91CF91089580E090E0AA
:10043000892B29F00E94820181110C9400000895FB
:10044000833081F028F4813099F08230A1F0089552
:100450008730A9F08830B9F08430D1F480918000E1
:100460008F7D03C0809180008F77809380000895F6
:1004700084B58F7702C084B58F7D84BD0895809147
:10048000B0008F7703C08091B0008F7D8093B00063
:1004900008953FB7F8948091770190917801A091E9
:1004A0007901B0917A0126B5A89B05C02F3F19F0BC
:1004B0000196A11DB11D3FBFBA2FA92F982F8827E4
:1004C000820F911DA11DB11DBC01CD0142E0660F3F
:1004D000771F881F991F4A95D1F7089510921F0220
:1004E0002091740180917501281769F030E0F901BD
:1004F000EC5CFE4F80812F5F3F4F2F73332720939B
:10050000740190E008958FEF9FEF089510927501A8
:100510001092740110921F020895E091740180916D
:100520007501E81741F0F0E0EC5CFE4F8081082E89
:10053000000C990B08958FEF9FEF089580911F0293
:1005400081110EC08091750190E0805C9F4F2091D9
:100550007401821B910960E470E00E945F0E0895AF
:100560008FEF9FEF08950895FC01808191810C9495
:10057000C50F0E9427110F931F93CF93DF93EC01B8
:1005800088819981009729F02A813B8126173707B6
:1005900088F48B016F5F7F4F0E945D10009761F0C0
:1005A000998388831B830A832C813D81232B11F43B
:1005B000FC01108281E001C080E0DF91CF911F91AA
:1005C0000F910895EF92FF920F931F93CF93DF93B4
:1005D000FC01248135816115710511F480E019C099
:1005E00041155105A9F07B01EC018A01020F131F8F
:1005F000B8010E94BB02882389F3288139818C814C
:100600009D81B701820F931F0E9440111D830C83AF
:1006100081E0DF91CF911F910F91FF90EF900895AE
:10062000CF93DF93EC0188819981009711F00E94AC
:10063000C50F198218821D821C821B821A82DF91CB
:10064000CF910895CF93DF93EC01FB014481558155
:10065000608171810E94E202811103C0CE010E947B
:100660001003CE01DF91CF910895EF92FF920F9387
:100670001F93CF93DF93EC017B018A01BA010E94A3
:10068000BB02811104C0CE010E94100307C01D836C
:100690000C83B701888199810E944011CE01DF91BE
:1006A000CF911F910F91FF90EF900895CF93DF931B
:1006B000EC016115710559F0FB0101900020E9F78B
:1006C0003197AF01461B570B0E94350302C00E94B1
:1006D0001003CE01DF91CF910895EF92FF920F9317
:1006E0001F93CF93DF93CDB7DEB7A1970FB6F894E2
:1006F000DEBF0FBECDBF7C01CB01BA01F701118275
:100700001082138212821582148242E0420F8E01FF
:100710000F5F1F4F0E944711BC01C7010E94560383
:10072000A1960FB6F894DEBF0FBECDBFDF91CF917B
:100730001F910F91FF90EF900895FB01DC0111963E
:100740001C921E9213961C921E92129715961C9242
:100750001E9214978617970749F060817181611581
:10076000710521F0448155810C9435030895FC01F5
:100770001182108213821282158214826115710512
:1007800051F0FB0101900020E9F73197AF01461BC2
:10079000570B0C9435030895BF92CF92DF92EF92DE
:1007A000FF920F931F93CF93DF937C016B018A011C
:1007B000E9012417350720F4812F8901C42FD82F90
:1007C00061E371E0C7010E94B703D60114968D91D1
:1007D0009C91159708171907D0F48C179D0708F4FA
:1007E000EC01D601ED91FC911197EC0FFD1FB0804B
:1007F00010824D915C91BA01600F711FC7010E9478
:100800005603D601ED91FC91EC0FFD1FB082C7019C
:10081000DF91CF911F910F91FF90EF90DF90CF90DC
:10082000BF9008951F920F920FB60F9211242F932D
:100830003F934F935F936F937F938F939F93AF9368
:10084000BF93EF93FF9381E891E00E948C01FF91A9
:10085000EF91BF91AF919F918F917F916F915F9138
:100860004F913F912F910F900FBE0F901F901895B1
:100870001F920F920FB60F9211242F938F939F9375
:10088000EF93FF93E0919101F09192018081E091CB
:100890009701F091980182FD12C0908180919A0198
:1008A0008F5F8F7320919B01821751F0E0919A0125
:1008B000F0E0EF57FE4F958F80939A0101C0808141
:1008C000FF91EF919F918F912F910F900FBE0F90FD
:1008D0001F901895CF93DF93282F30E0F901E4584B
:1008E000FF4F8491F901E255FF4FD491F901E6568B
:1008F000FF4FC491CC2391F081110E942002EC2F74
:10090000F0E0EE0FFF1FE057FF4FA591B491EC917F
:10091000ED2381E090E021F480E002C080E090E0EF
:10092000DF91CF910895EF92FF920F931F93CF9392
:10093000DF9380917B0190917C01892B09F445C064
:1009400080911E020E946A04892B09F43EC087E749
:1009500096E00197F1F708E010E0D1E0C0E083EF06
:10096000E82E8CE0F82E0150110981F0C7010197A3
:10097000F1F780911E020E946A04892B11F4CD2B9D
:1009800003C08D2F8095C823DD0FEDCF83EF9CE052
:10099000FC013197F1F70197F1F78091750190E033
:1009A0009C012F5F3F4F2F7333274091740150E01C
:1009B0002417350721F481E080931F0206C0FC0153
:1009C000EC5CFE4FC08320937501DF91CF911F91A6
:1009D0000F91FF90EF9008951F93CF93DF93282FEF
:1009E00030E0F901E458FF4F8491F901E255FF4FDF
:1009F000D491F901E656FF4FC491CC23C9F0162FCC
:100A000081110E942002EC2FF0E0EE0FFF1FEE5844
:100A1000FF4FA591B4918FB7F894111105C09C9127
:100A2000ED2FE095E92302C0EC91ED2BEC938FBF05
:100A3000DF91CF911F910895CF93DF9390E0FC0158
:100A4000E255FF4F2491FC01E656FF4F8491882325
:100A500061F190E0880F991FFC01E859FF4FC591A3
:100A6000D491FC01EE58FF4FA591B491611109C0DA
:100A70009FB7F8948881209582238883EC912E2358
:100A80000BC0623061F49FB7F8943881822F809553
:100A900083238883EC912E2B2C939FBF06C08FB7A6
:100AA000F894E8812E2B28838FBFDF91CF91089592
:100AB0008F929F92AF92BF92CF92DF92EF92FF926E
:100AC0006B017C010E9449024B015C01C114D104FD
:100AD000E104F104F1F00E944902DC01CB01881924
:100AE0009909AA09BB09883E9340A105B10570F395
:100AF00021E0C21AD108E108F10888EE880E83E0EF
:100B0000981EA11CB11CC114D104E104F10419F711
:100B1000DDCFFF90EF90DF90CF90BF90AF909F9090
:100B20008F900895EF92FF920F931F93CF93DF93CF
:100B300000D000D000D0CDB7DEB78C017B0161E3DF
:100B400071E00E94B703B701CE0101960E949D0398
:100B5000CE0101960E943108CE0101960E94B40296
:100B60006EE170E080E090E00E94580580E292E043
:100B70000E949E02892BB9F080E292E00E946E02F0
:100B80008A30A1F38D3091F389831A8241E050E0DD
:100B9000BE016F5F7F4FC8010E94E20265E070E016
:100BA00080E090E0E1CF80E292E00E948602C801FE
:100BB0000E941808C80126960FB6F894DEBF0FBE33
:100BC000CDBFDF91CF911F910F91FF90EF900895CE
:100BD0001F920F920FB60F9211242F933F938F9372
:100BE0009F93AF93BF9380917D0190917E01A091DF
:100BF0007F01B09180013091760123E0230F2D37E2
:100C000020F40196A11DB11D05C026E8230F029610
:100C1000A11DB11D2093760180937D0190937E01EB
:100C2000A0937F01B093800180917701909178012A
:100C3000A0917901B0917A010196A11DB11D809317
:100C4000770190937801A0937901B0937A01BF91D5
:100C5000AF919F918F913F912F910F900FBE0F9069
:100C60001F9018951F920F920FB60F9211242F9379
:100C70003F934F935F936F937F938F939F93AF9324
:100C8000BF93EF93FF930E949304FF91EF91BF9165
:100C9000AF919F918F917F916F915F914F913F9114
:100CA0002F910F900FBE0F901F9018951F920F92CB
:100CB0000FB60F9211242F933F934F935F936F932F
:100CC0007F938F939F93AF93BF93EF93FF930E9474
:100CD0009304FF91EF91BF91AF919F918F917F917D
:100CE0006F915F914F913F912F910F900FBE0F9099
:100CF0001F9018951F920F920FB60F9211242F93E9
:100D00003F934F935F936F937F938F939F93AF9393
:100D1000BF93EF93FF930E949304FF91EF91BF91D4
:100D2000AF919F918F917F916F915F914F913F9183
:100D30002F910F900FBE0F901F9018956230C9F53C
:100D400061E080911E020E941C0560E080911E02FD
:100D50000E94EC0420911E02283038F02E3040F022
:100D6000263148F4ECE6F0E008C0EDE6F0E005C01E
:100D7000EBE6F0E002C0E0E0F0E03081283038F44B
:100D800081E090E001C0880F2A95EAF70FC0422F5A
:100D900050E02E3018F44850510902C04E5051090D
:100DA00081E090E001C0880F4A95EAF7809583239F
:100DB000C3C0633039F461E080911E020E941C05BB
:100DC000F8940895643009F050C060E080911E02EC
:100DD0000E94EC0460E080911E020E941C05789441
:100DE00080911E02863118F0E0E0F0E002C0E8E6F3
:100DF000F0E09081883050F021E08E3008F420E05F
:100E000081E001C0880F2A95EAF701C084E0892BB0
:100E1000808390911E02983038F09E3040F09631D9
:100E200048F0E0E0F0E008C0EDE6F0E005C0EBE6F9
:100E3000F0E002C0ECE6F0E04081983030F481E070
:100E400001C0880F9A95EAF70EC0292F30E09E3036
:100E500018F42850310902C02E50310981E001C038
:100E6000880F2A95EAF7842B67C060E080911E0204
:100E70000E94EC0460E080911E020E941C052091FB
:100E80001E02283038F02E3040F0263148F0E0E0E5
:100E9000F0E008C0EDE6F0E005C0EBE6F0E002C0EF
:100EA000ECE6F0E03081283038F481E090E001C0D9
:100EB000880F2A95EAF70FC0422F50E02E3018F421
:100EC0004850510902C04E50510981E090E001C0E4
:100ED000880F4A95EAF780958323808390911E02BC
:100EE000983038F09E3040F0963148F0E0E0F0E085
:100EF00008C0EDE6F0E005C0EBE6F0E002C0ECE68D
:100F0000F0E08081811119C0963118F0E0E0F0E046
:100F100002C0E8E6F0E02081983060F031E09E30D9
:100F200008F430E081E090E001C0880F3A95EAF7DC
:100F3000809501C08BEF8223808308958F929F92CA
:100F4000AF92BF92CF92DF92EF92FF92CF93DF9357
:100F5000A0913B02882311F03A2F01C030E080912C
:100F60003C0290E0880F991F80579F4FC09041022C
:100F7000D0904202E0904302F090440240E050E002
:100F8000BA01FC01C591D49128812A2323130FC0F3
:100F90004A015B012FEF821A920AA20AB20A4C158B
:100FA0005D056E057F0538F4B501A401EACF342F45
:100FB000252FCB0104C030E020E080E090E0632FDB
:100FC000722FDF91CF91FF90EF90DF90CF90BF9085
:100FD000AF909F908F900895EF92FF920F931F9381
:100FE000CF93DF93E82EF62E08E010E0C0E0D0E0CB
:100FF00061E08F2D0E94EC046AE070E080E090E0F8
:101000000E945805CC0FDD1F8E2D0E946A04C80F68
:10101000D91F60E08F2D0E94EC040150110941F7A7
:10102000CE01DF91CF911F910F91FF90EF90089526
:10103000CF93DF93FC01448155816081718181E808
:1010400091E00E942901EC0142E050E06FE271E082
:1010500081E891E00E9429018C0F9D1FDF91CF91C3
:1010600008955F926F927F928F929F92AF92BF92FC
:10107000CF92DF92EF92FF920F931F93CF93DF9364
:101080007C0163E080E292E00E949E06C0911E0215
:1010900061E08C2F0E94EC048BE09DEB0197F1F74F
:1010A00060E08C2F0E94EC048BE393E80197F1F74A
:1010B00000E010E033EFA32E3CE0B32E43EF842E8C
:1010C0004CE0942EF701848195810817190708F0E8
:1010D00048C0D701ED91FC91309729F41092460257
:1010E000E6E4F2E002C0E00FF11F8081982F092EA4
:1010F00092959025092E9695969590259F5F91FB48
:10110000CC24C0F8D12C96013695322F2227379562
:101110002795582E522A61E08C2F0E94EC04C501BD
:101120000197F1F728E0622E712CD1E08D2F8521F7
:1011300011F060E001C061E08C2F0E94EC04C50159
:101140000197F1F7DD0FB1E06B1A710879F760E0F4
:101150008C2F0E94EC04C4010197F1F70F5F1F4F21
:10116000B1CF64E080E292E0DF91CF911F910F91C7
:10117000FF90EF90DF90CF90BF90AF909F908F90B7
:101180007F906F905F900C949E06CF93DF93EC015D
:1011900041E050E062E371E00E94E202811103C08D
:1011A000CE010E941003CE01DF91CF910895CF931D
:1011B000DF93D82FC62F61E00E941C0561E08C2FC1
:1011C0000E941C0561E08D2F0E94EC0461E08C2FD1
:1011D0000E94EC0460E08C2FDF91CF910C94EC0422
:1011E000EF92FF920F931F93CF93DF93C82FF92EA7
:1011F000D62FE72E60E00E941C0561E08D2F0E9433
:101200001C056D2F7E2D8C2F9F2D0E94EC0700E07A
:1012100010E0182F61E08C2F0E941C0561E08C2FDC
:101220000E94EC0460E08C2F0E94EC0461E08D2FA2
:101230000E94EC0460E08D2F0E94EC0460E08C2F93
:101240000E941C056D2F7E2D8C2F9F2D0E94EC0778
:10125000802B912BDF91CF911F910F91FF90EF90F9
:1012600008951F93CF93DF93182F60E00E941C0511
:10127000C4E6D0E06AE070E080E090E00E945805AB
:10128000812F0E946A04892B11F0219799F7DF9131
:10129000CF911F910895EF92FF920F931F93CF93D9
:1012A000DF937C01D62FC42F61E08D2F0E941C0597
:1012B00061E08C2F0E941C0561E08D2F0E94EC04E0
:1012C00061E08C2F0E94EC0460E08D2F0E94EC0402
:1012D00060E08C2F0E94EC0461E08C2F0E94EC04F3
:1012E00061E08D2F0E94EC0460E08C2F0E94EC04E2
:1012F00007E010E0FF24B701002E02C07595679546
:101300000A94E2F7617077278D2F0E94EC0461E068
:101310008C2F0E94EC0460E08C2F0E94EC040150A2
:10132000110948F761E08C2F0E94EC0460E08D2FDA
:101330000E941C058D2F0E946A0460E08C2F0E9481
:10134000EC048D2FDF91CF911F910F91FF90EF90C3
:101350000C946A040F931F93CF93DF93CEE2D2E0F5
:101360004A815B816881798183E090E00E944B092A
:10137000888199810E9431096A817B818881998164
:101380000E94F0088C016A817B81888199810E948A
:10139000D708B801110F880B990B0E945615DF91E1
:1013A000CF911F910F910895CF92DF92EF92FF920C
:1013B0000F931F93CF93DF93CDB7DEB7C054D140C7
:1013C0000FB6F894DEBF0FBECDBF2FB7F894809153
:1013D0007D0190917E01A0917F01B09180012FBF8E
:1013E00040913D0250913E0260913F027091400257
:1013F0008C019D01041B150B260B370BB901A801AD
:10140000403D57406105710518F480914502BCC00C
:1014100080933D0290933E02A0933F02B09340021E
:101420001092380210923702109236021092350252
:101430001092340261E0809139020E94EC046AEF5C
:1014400070E080E090E00E94580561E080913902F0
:101450000E941C0560E0809139020E94EC0464E166
:1014600070E080E090E00E945805F89461E080917F
:1014700039020E94EC048BE990E00197F1F762E0F9
:10148000809139020E941C0583E290E00197F1F7F8
:1014900080E00E949E07672B682B692B21F4109235
:1014A000450278943EC081E00E949E07672B682B1E
:1014B000692BA9F38E010F5F1F4F6E012FEBC21A2C
:1014C0002EEFD20A780180E00E949E07F701608328
:1014D00071838283938381E00E949E07F701648376
:1014E000758386839783F8E0EF0EF11CEC14FD04FE
:1014F00051F7789420E030E0F80140815181628119
:101500007381C480D580E680F7804115510561055F
:10151000710529F0C114D104E104F10421F4109201
:10152000450280E031C0F90183E0F595E7958A95A1
:10153000E1F7EC5CFD4F8081880F4C155D056E0571
:101540007F0508F4816080832F5F3F4F085F1F4F46
:101550002832310589F62091380230E0409134027A
:101560008091350290E0840F911D40913602840FE6
:10157000911D40913702840F911D99272817390733
:1015800071F681E080934502C05CDE4F0FB6F8949F
:10159000DEBF0FBECDBFDF91CF911F910F91FF90A6
:1015A000EF90DF90CF900895CF93DF93CDB7DEB764
:1015B000E6970FB6F894DEBF0FBECDBF789484B522
:1015C000826084BD84B5816084BD85B5826085BD3F
:1015D00085B5816085BD80916E00816080936E00CD
:1015E00010928100809181008260809381008091BF
:1015F0008100816080938100809180008160809370
:1016000080008091B10084608093B1008091B0002F
:1016100081608093B00080917A00846080937A002A
:1016200080917A00826080937A0080917A00816054
:1016300080937A0080917A00806880937A0010927B
:10164000C100E0919101F091920182E08083E091EC
:101650008D01F0918E011082E0918F01F091900147
:101660008FEC808310929901E0919501F0919601A1
:1016700086E08083E0919301F09194018081806104
:101680008083E0919301F091940180818860808350
:10169000E0919301F0919401808180688083E091D2
:1016A0009301F091940180818F7D808362E080912D
:1016B00039020E941C0580E398EFAFEFBFEF8093E3
:1016C0003D0290933E02A0933F02B093400262E03D
:1016D00080E292E00E949E0680917B0190917C01C5
:1016E0008052924059F062E080E292E00E949E06B1
:1016F00080E292E090937C0180937B0181E891E00D
:101700000E947601181619060CF05FC281E891E07C
:101710000E94540161E371E0CE018B960E94B703F1
:1017200066E271E0CE0107960E94B703BE01695FD1
:101730007F4FCE0101960E949205CE0101960E9434
:10174000B402CE0107960E94B40268E873E180E01B
:1017500090E00E9458056AE271E0CE0107960E946F
:10176000B703BE01695F7F4FCE0101960E949205CB
:101770008BA59CA50097A9F069817A8161157105F7
:1017800071F04DA55EA52D813E814217530738F0BB
:101790000E9440118D819E8198AB8FA712C00E943C
:1017A000C50F89819A819CA78BA78B819C819EA75D
:1017B0008DA78D819E8198AB8FA71A8219821C827A
:1017C0001B821E821D82CE0101960E94B402CE01B0
:1017D00007960E94B402EFA4F8A8E114F10469F09E
:1017E000CBA4DCA46BE270E0C6010E943511009727
:1017F00021F08C010C191D0902C00FEF1FEF0F5FC4
:101800001F4F0E151F0578F4CBA4DCA46BE270E02B
:10181000C601800F911F0E943511009721F07C01B5
:10182000EC18FD0803C0EE24EA94FE2C9701A801F1
:10183000BE01655D7F4FCE0101960E94CC03898178
:101840009A81009729F00E946711AB01BC0103C087
:1018500040E050E0BA0122E0CE0185960E946D037F
:10186000CE0101960E94B4022FA538A9A7014F5FAF
:101870005F4FBE01655D7F4FCE0101960E94CC0394
:1018800089819A81009729F00E946711AB01BC0100
:1018900003C040E050E0BA0122E0CE014F960E9422
:1018A0006D03CE0101960E94B4020E94D4098823E0
:1018B000A1F180913A028B3041F178F1855182306B
:1018C00060F56091340270E080E090E00E94541571
:1018D00020E030E040E853E40E94B5156B017C0144
:1018E00080913502682F70E080E090E00E945615EC
:1018F0009B01AC01C701B6010E948E0E2DEC3CECA1
:101900004CEC5DE30E94B5150CC06091340270E0B0
:1019100080E090E00E94541504C060E070E080EC2C
:101920009FE722E0AB01BC01CE0149960E946D0306
:101930000E94D4098823D1F180913A028B3029F09A
:10194000A8F18551823048F031C06091360270E0D4
:1019500080E090E00E9454152DC010913602612F56
:101960006F7770E080E090E00E94561520E030E054
:1019700040E853E40E94B5156B017C018091370269
:10198000682F70E080E090E00E9456159B01AC014A
:10199000C701B6010E948E0E2DEC3CEC4CEC5DE3D1
:1019A0000E94B51517FF06C0905804C060E070E0B3
:1019B00080EC9FE722E0AB01BC01CE0143960E9480
:1019C0006D030E94AA090E94FA0E072E000C880BD4
:1019D000990B0E9456152AE037ED43E25CE30E9422
:1019E000B51520E030E040E252E40E948D0EAB01DC
:1019F000BC0122E0CE010D960E946D0340913002A1
:101A00005091310260912E0270912F0285E090E09A
:101A10000E944B0980912E0290912F020E94310961
:101A2000609130027091310280912E0290912F02CC
:101A30000E94F0088C016091300270913102809117
:101A40002E0290912F020E94D708B801110F880B27
:101A5000990B0E9456156B017C0124E533EE45E29B
:101A60005DE30E94B51520E030E040E850E40E94BC
:101A70008D0E4B015C0122EA37EE4BE356EBC701BA
:101A8000B6010E94B515A70196010E94B5159B01EC
:101A9000AC01C501B4010E948E0E4B015C010E9495
:101AA000AA090E94FA0E072E000C880B990B0E94BF
:101AB00056152AE037ED43E25CE30E94B51520E0BD
:101AC00030E040E252E40E948D0E20E030E048EC2D
:101AD00051E40E948D0E2B013C012CEA35EC47EAC3
:101AE00058E3C701B6010E94B5152AE037ED43E27D
:101AF0005CE30E948E0E9B01AC01C301B2010E9407
:101B0000B515A50194010E948E0EAB01BC0122E027
:101B1000CE0107960E946D03BE016D5E7F4FCE0120
:101B200001960E949D03CE0101960E94C508BE0148
:101B3000675E7F4F0E9422030E94C508BE01635F5B
:101B40007F4F0E9422030E94C508BE01695F7F4F3C
:101B50000E9422030E94C508BE016B5D7F4F0E9458
:101B600022030E94C508BE01615E7F4F0E942203CE
:101B7000BC01CE01C1960E949D03CE0101960E9438
:101B8000B402CE0107960E94B402CE010D960E94C7
:101B9000B402CE0143960E94B402CE0149960E943F
:101BA000B402CE014F960E94B402CE0185960E94E7
:101BB000B402CE018B960E94B402CE01C1960E945F
:101BC0001808CE01C1960E94B4020E94160296CD5A
:101BD0008AE191E0909321028093200260E080E20C
:101BE00092E00C949E060F931F93E1E8F1E01382BC
:101BF000128248EE53E060E070E0448355836683D0
:101C000077838AE091E09183808385EC90E09587EB
:101C1000848784EC90E09787868780EC90E0918BB6
:101C2000808B81EC90E0938B828B82EC90E0958BA3
:101C3000848B86EC90E0978B868B118E128E138EA0
:101C4000148EA4E3B2E083E015968C93159786E199
:101C500016968C931697E1EBF0E0E4911796EC93CF
:101C60001797EDE9F0E0E4911896EC93189700E8E7
:101C70001EE320E030E01D960D931D932D933C93C1
:101C80005097EEE2F2E084E090E09183808385E07B
:101C900090E093838283E0E2F2E013821282448335
:101CA0005583668377838AE191E0918380831092E4
:101CB0001F0286E080931E021F910F91089597FBEB
:101CC000072E16F4009407D077FD09D00E94730EFA
:101CD00007FC05D03EF4909581959F4F089570952F
:101CE00061957F4F0895AA1BBB1B51E107C0AA1F36
:101CF000BB1FA617B70710F0A61BB70B881F991FAD
:101D00005A95A9F780959095BC01CD010895EE0FE5
:101D1000FF1F0590F491E02D09945058BB27AA2786
:101D20000E94A50E0C943C160E942E1638F00E94BC
:101D3000351620F039F49F3F19F426F40C942B1635
:101D40000EF4E095E7FB0C942516E92F0E944D1642
:101D500058F3BA17620773078407950720F079F4E0
:101D6000A6F50C946F160EF4E0950B2EBA2FA02D4D
:101D70000B01B90190010C01CA01A0011124FF2738
:101D8000591B99F0593F50F4503E68F11A16F04033
:101D9000A22F232F342F4427585FF3CF4695379532
:101DA0002795A795F0405395C9F77EF41F16BA0BF7
:101DB000620B730B840BBAF09150A1F0FF0FBB1FA5
:101DC000661F771F881FC2F70EC0BA0F621F731FEE
:101DD000841F48F4879577956795B795F7959E3F4B
:101DE00008F0B0CF9395880F08F09927EE0F9795DC
:101DF000879508950E94010F6894B1110C94701694
:101E000008950E94551688F09F5798F0B92F99278A
:101E1000B751B0F0E1F0660F771F881F991F1AF0D5
:101E2000BA95C9F714C0B13091F00E946F16B1E0B5
:101E300008950C946F16672F782F8827B85F39F0B4
:101E4000B93FCCF3869577956795B395D9F73EF46E
:101E500090958095709561957F4F8F4F9F4F089516
:101E6000CF93DF938230910510F482E090E0E0910F
:101E70004902F0914A0220E030E0C0E0D0E0309723
:101E800011F14081518148175907C0F0481759078F
:101E900061F482819381209719F09B838A832BC000
:101EA00090934A028093490226C02115310519F00A
:101EB0004217530718F49A01BE01DF01EF010280B7
:101EC000F381E02DDCCF2115310509F1281B390BF9
:101ED0002430310590F412968D919C9113976115E1
:101EE000710521F0FB019383828304C090934A0221
:101EF00080934902FD01329644C0FD01E20FF31FB9
:101F000081939193225031092D933C933AC02091B3
:101F1000470230914802232B41F420910201309175
:101F20000301309348022093470220910001309131
:101F300001012115310541F42DB73EB7409104014F
:101F400050910501241B350BE0914702F0914802A6
:101F5000E217F307A0F42E1B3F0B2817390778F080
:101F6000AC014E5F5F4F2417350748F04E0F5F1FDF
:101F700050934802409347028193919302C0E0E05E
:101F8000F0E0CF01DF91CF9108950F931F93CF938E
:101F9000DF93009709F48CC0FC0132971382128200
:101FA0000091490210914A020115110581F4208126
:101FB0003181820F931F20914702309148022817E8
:101FC000390779F5F0934802E093470271C0D801D0
:101FD00040E050E0AE17BF0750F412962D913C91AF
:101FE0001397AD012115310509F1D901F3CF9D01F9
:101FF000DA013383228360817181860F971F8217F4
:10200000930769F4EC0128813981260F371F2E5F71
:102010003F4F318320838A819B8193838283452B29
:1020200029F4F0934A02E093490242C01396FC93CC
:10203000EE931297ED01499159919E01240F351F9E
:10204000E217F30771F480819181840F951F029646
:1020500011969C938E938281938113969C938E9379
:102060001297E0E0F0E0D80112968D919C911397C1
:10207000009719F0F8018C01F6CF8D919C91980191
:102080002E5F3F4F820F931F2091470230914802ED
:102090002817390769F4309729F410924A021092F0
:1020A000490202C013821282109348020093470231
:1020B000DF91CF911F910F910895A0E0B0E0E3E68A
:1020C000F0E10C948516EC01009721F4CB010E94FD
:1020D000300FB8C0FC01E60FF71F9C0122503109F8
:1020E000E217F30708F4ACC0D9010D911C911197C8
:1020F00006171707B0F00530110508F49FC0C80196
:1021000004978617970708F499C002501109061B17
:10211000170B019311936D937C93CF010E94C50F10
:102120008DC05B01A01AB10A4C01800E911EA091D6
:102130004902B0914A0240E050E0E12CF12C1097A6
:1021400009F44AC0A815B905D1F56D907C90119796
:10215000630182E0C80ED11CCA14DB0480F1A30124
:102160004A195B096A0182E0C80ED11C1296BC9024
:1021700012971396AC91B5E0CB16D10440F0B28221
:10218000A38351834083D9016D937C930AC00E5F72
:102190001F4FC301800F911FF90191838083EB2DA5
:1021A000FA2FE114F10431F0D7011396FC93EE936A
:1021B000129744C0F0934A02E09349023FC08D91C8
:1021C0009C9111974817590708F4AC017D011296AC
:1021D0000D90BC91A02DB3CF809147029091480201
:1021E00088159905E1F446175707C8F48091000156
:1021F00090910101009741F48DB79EB74091040181
:1022000050910501841B950BE817F907C8F4F0936A
:102210004802E0934702F901718360830FC0CB014C
:102220000E94300F7C01009759F0A801BE010E9466
:102230002C11CE010E94C50FC70104C0CE0102C0FF
:1022400080E090E0CDB7DEB7EEE00C94A11681E01F
:1022500090E0F8940C94C716FB01DC0102C00190D9
:102260000D9241505040D8F70895FC018191861796
:1022700021F08823D9F7992708953197CF01089540
:10228000FB01DC0101900D920020E1F70895EF922F
:102290000F931F93CF93DF93E80147FD02C034E013
:1022A00001C034E1E42F440FFF0BF7FF03C0F195A9
:1022B000E195F109E32E022F2E2FAE010E946B1142
:1022C000CE01DF91CF911F910F91EF900895662776
:1022D00077270C94F9124F925F926F927F929F92A0
:1022E000AF92BF92CF92DF92EF92FF920F931F9324
:1022F000CF93DF93CDB7DEB729970FB6F894DEBF43
:102300000FBECDBF6A01122FB02E2BE3201720F095
:10231000FF24F394F00E02C0BCE3FB2E0F2D27E048
:10232000AE014F5F5F4F0E945614AC018981982F18
:102330009970913031F0E1FC06C0E0FE06C090E2F9
:1023400005C09DE203C09BE201C090E0EE2DE0716C
:1023500083FF3CC0911102C083E001C084E081177B
:1023600018F4212F281B01C020E0E1110BC0F60159
:10237000822F30E2882319F031938150FBCFC20EB7
:10238000D11C20E0992329F0D6019C93F6013196C7
:102390006F01C6010396E2FE0AC03EE4D6013C93FB
:1023A00041E411964C93119712963C9306C03EE679
:1023B000F601308341E641833283FC01322F40E253
:1023C000332309F442C041933150FACF82FF44C015
:1023D000911102C083E001C084E0811718F4212F1D
:1023E000281B01C020E0E1110BC0F601822F30E272
:1023F000882319F031938150FBCFC20ED11C20E00D
:10240000992329F0D6019C93F60131966F01C601FC
:102410000396E2FE0BC039E4D6013C933EE41196EC
:102420003C93119736E412963C9307C039E6F601C7
:1024300030833EE6318336E63283FC01322F40E2C0
:10244000332319F041933150FBCFFC01E20FF11D12
:1024500010828EEF9FEFB7C0F1E0911101C0F0E064
:102460006F2F70E01416150624F49A012F5F3F4F6A
:1024700002C021E030E0260F371FBB2029F06B2D72
:1024800070E06F5F7F4F02C060E070E0260F371F83
:10249000612F70E0261737071CF4121B212F01C093
:1024A00020E03E2D387159F4D601322F60E23323FB
:1024B00019F06D933150FBCFC20ED11C20E0FF23E9
:1024C00031F0D6019C93B6016F5F7F4F6B01E11134
:1024D0000BC0F601922F30E3992319F031939150FC
:1024E000FBCFC20ED11C20E09F2D940F3A81782F94
:1024F0007071A72E84FF03C0313309F4915019166F
:1025000024F4993018F098E001C091E0E42F852F71
:1025100057FF02C0E0E080E06E2F782FE0E0F0E0AF
:10252000AEE29A2E3A01691A71082A01461A570A30
:102530000B2D10E01195019511096F3F8FEF780772
:1025400029F4D6019C92C60101966C0146175707E3
:1025500084F0661677066CF47F01E40CF51CA1E0AC
:10256000B0E0AC0FBD1FEA0EFB1ED7011196BC9068
:1025700002C090E3B92E615071093196C6010196EF
:102580007C016017710724F0D601BC926C01D5CF95
:102590006417750741F4363320F4353321F4A11064
:1025A00002C081E3B82EF601B082F701822F90E2DB
:1025B000882319F091938150FBCFF701E20FF11DB1
:1025C000108280E090E029960FB6F894DEBF0FBE2F
:1025D000CDBFDF91CF911F910F91FF90EF90DF90D2
:1025E000CF90BF90AF909F907F906F905F904F90F3
:1025F0000895A0E0B0E0EFEFF2E10C948516EC0155
:102600007B016115710519F0DB018D939C938E019F
:102610000F5F1F4F7880872D90E00E942E15892B29
:1026200011F0E801F4CFBDE27B1205C00F5F1F4F30
:102630007980C1E008C0EBE27E1204C08E010E5F1B
:102640001F4F7980C0E06801F1E0CF1AD10843E064
:1026500050E06AEC70E0C6010E943715892BF1F456
:10266000680122E0C20ED11C45E050E065EC70E04C
:10267000C6010E943715892B21F4680187E0C80E36
:10268000D11CE114F10419F0D701CD92DC92C111F3
:10269000FFC060E070E080E89FE703C143E050E0E6
:1026A00062EC70E0C6010E943715892B51F4E114E9
:1026B000F10409F4F2C00E5F1F4FF701118300838C
:1026C000ECC0680160E070E0CB0100E010E0F601D2
:1026D000D0EDD70DDA3058F52C2F2260622E2C2F3A
:1026E0002870C2FF05C0211128C00F5F1F4F25C0F1
:1026F000222311F001501109A5E0B0E09B01AC01CB
:102700000E9476164B015C01880C991CAA1CBB1C0C
:10271000C501B4016D0F711D811D911D6839A9E9B5
:102720007A078A07A9E19A0740F0C66005C0DE3F34
:1027300051F4C3FD44C0C8606C2EBFEFCB1ADB0A56
:102740007080C62DC4CF2D2F2F7D2531C1F540813E
:102750004D3211F4C06106C04B3221F0319621E0B8
:1027600030E006C03296D60111964C9122E030E05E
:10277000A0EDA40FAA3018F0E21BF30B20C040E03C
:1027800050E04038BCE05B075CF49A01220F331F35
:10279000220F331F420F531F440F551F4A0F511D65
:1027A0003196DF0111972C91A0EDA20FAA3048F3CA
:1027B000C4FF03C0519541955109040F151FC1FF76
:1027C00007C0E114F10421F03197D701ED93FC9398
:1027D0000E945415C370C33019F06B017C0106C010
:1027E0006B017C01F7FAF094F7F8F09420E030E008
:1027F000A901C701B6010E944F15882309F445C0FD
:1028000017FF06C0119501951109C1EED0E002C075
:10281000C9EFD0E05E01B8E1AB1AB1084601BE2DA8
:10282000AF2D90E2E92EF12C0E151F0584F0FE016C
:102830002591359145915491B4018B2F9A2F0E9487
:10284000B5154B01B82FA92F0E191F09EDCF2497ED
:10285000F594E794CA15DB0539F76401EB2EFA2EDF
:102860008E2D880F8F2D881F8F3F49F020E030E09C
:10287000A901C701B6010E944F15811106C082E26D
:1028800090E090934C0280934B02C701B60109C0BF
:1028900060E070E080E89FEF04C060E070E080ECF2
:1028A0009FE7CDB7DEB7EEE00C94A116283008F014
:1028B00027E03327DA01990F311D87FD91600096DB
:1028C0006105710539F432602E5F3D9330E32A953E
:1028D000E1F708959F3F30F080387105610509F0F8
:1028E0003C5F3C5F3D93913008F08068911DDF9321
:1028F000CF931F930F93FF92EF92192F987F969586
:10290000E92F96959695E90FFF27E95AFE4F9927EB
:102910003327EE24FF24A701E701059008940794CC
:1029200028F4360FE71EF81E491F511D660F771F4A
:10293000881F991F0694A1F70590079428F4E70EC5
:10294000F81E491F561FC11D770F881F991F661F4C
:102950000694A1F70590079428F4F80E491F561F16
:10296000C71FD11D880F991F661F771F0694A1F7F7
:102970000590079420F4490F561FC71FD81F990FC1
:10298000661F771F881F0694A9F78491109517700A
:1029900041F0D695C79557954795F794E7941A95C2
:1029A000C1F7EDEFF0E068941590159135916591C0
:1029B000959105907FE27395E118F10A430B560B50
:1029C000C90BD009C0F7E10CF11E431F561FC91FE8
:1029D000D01D7EF4703311F48A95E6CFE89401504F
:1029E00030F0080F0AF40027021708F4202F23956F
:1029F000022F7A3328F079E37D932A95E9F710C006
:102A00007D932A9589F6069497956795379517953E
:102A10001794E118F10A430B560BC90BD00998F033
:102A200023957E9173957A3308F070E37C9320139D
:102A3000B8F77E9170617D9330F0839571E37D935B
:102A400070E32A95E1F71124EF90FF900F911F9109
:102A5000CF91DF91992787FD9095089591110C945E
:102A60002216803219F089508550C8F70895FB016D
:102A7000DC014150504088F08D9181341CF08B3541
:102A80000CF4805E659161341CF06B350CF4605E73
:102A9000861B611171F3990B0895881BFCCF0E946E
:102AA000911508F481E00895E89409C097FB3EF47D
:102AB00090958095709561957F4F8F4F9F4F99238B
:102AC000A9F0F92F96E9BB279395F6958795779509
:102AD0006795B795F111F8CFFAF4BB0F11F460FFC9
:102AE0001BC06F5F7F4F8F4F9F4F16C0882311F021
:102AF00096E911C0772321F09EE8872F762F05C035
:102B0000662371F096E8862F70E060E02AF09A95CF
:102B1000660F771F881FDAF7880F9695879597F9C4
:102B20000895990F0008550FAA0BE0E8FEEF16165E
:102B30001706E807F907C0F012161306E407F507B1
:102B400098F0621B730B840B950B39F40A2661F025
:102B5000232B242B252B21F408950A2609F4A140C8
:102B6000A6958FEF811D811D08950E94C8150C94B4
:102B70003C160E942E1638F00E94351620F0952340
:102B800011F00C9425160C942B1611240C9470162D
:102B90000E944D1670F3959FC1F3950F50E0551F9D
:102BA000629FF001729FBB27F00DB11D639FAA27A2
:102BB000F00DB11DAA1F649F6627B00DA11D661FF1
:102BC000829F2227B00DA11D621F739FB00DA11D12
:102BD000621F839FA00D611D221F749F3327A00DCC
:102BE000611D231F849F600D211D822F762F6A2F68
:102BF00011249F5750409AF0F1F088234AF0EE0FCD
:102C0000FF1FBB1F661F771F881F91505040A9F7F9
:102C10009E3F510580F00C9425160C9470165F3F72
:102C2000E4F3983ED4F3869577956795B795F79535
:102C3000E7959F5FC1F7FE2B880F911D96958795AD
:102C400097F9089599278827089597F99F6780E84D
:102C500070E060E008959FEF80EC089500240A94EE
:102C60001616170618060906089500240A94121667
:102C70001306140605060895092E0394000C11F49A
:102C8000882352F0BB0F40F4BF2B11F460FF04C047
:102C90006F5F7F4F8F4F9F4F089557FD9058440FA0
:102CA000551F59F05F3F71F04795880F97FB991FAB
:102CB00061F09F3F79F08795089512161306140668
:102CC000551FF2CF4695F1DF08C0161617061806F5
:102CD000991FF1CF86957105610508940895E894D0
:102CE000BB2766277727CB0197F908950E94B8166E
:102CF000A59F900DB49F900DA49F800D911D112450
:102D000008952F923F924F925F926F927F928F928F
:102D10009F92AF92BF92CF92DF92EF92FF920F936A
:102D20001F93CF93DF93CDB7DEB7CA1BDB0B0FB674
:102D3000F894DEBF0FBECDBF09942A883988488831
:102D40005F846E847D848C849B84AA84B984C884C7
:102D5000DF80EE80FD800C811B81AA81B981CE0FBE
:102D6000D11D0FB6F894DEBF0FBECDBFED010895A3
:102D7000A29FB001B39FC001A39F700D811D1124BC
:102D8000911DB29F700D811D1124911D089510E0B9
:102D9000CDEFD0E004C0FE010E94870E2196CE3F09
:082DA000D107C9F7F894FFCF39
:102DA80000004D02800000000000AD0129017601FD
:102DB80054016801F40100000000B30229019E02D9
:102DC8006E028D028602304D210030443021000D04
:042DD8000A002C00C1
:107800000C94343C0C94513C0C94513C0C94513CE1
:107810000C94513C0C94513C0C94513C0C94513CB4
:107820000C94513C0C94513C0C94513C0C94513CA4
:107830000C94513C0C94513C0C94513C0C94513C94
:107840000C94513C0C94513C0C94513C0C94513C84
:107850000C94513C0C94513C0C94513C0C94513C74
:107860000C94513C0C94513C11241FBECFEFD8E036
:10787000DEBFCDBF11E0A0E0B1E0ECE9FFE702C060
:1078800005900D92A230B107D9F712E0A2E0B1E065
:1078900001C01D92AD30B107E1F70E942D3D0C945F
:1078A000CC3F0C94003C982F959595959595959582
:1078B000905D8F708A307CF0282F295A8091C0000B
:1078C00085FFFCCF9093C6008091C00085FFFCCF60
:1078D0002093C6000895282F205DF0CF982F809127
:1078E000C00085FFFCCF9093C6000895EF92FF92F1
:1078F0000F931F93EE24FF2487018091C00087FD22
:1079000017C00894E11CF11C011D111D81E4E8164B
:1079100082E4F8068FE0080780E0180770F3E09132
:107920000401F091050109958091C00087FFE9CF1E
:107930008091C6001F910F91FF90EF9008950E94D3
:10794000763C982F8091C00085FFFCCF9093C600B5
:1079500091362CF490330CF09053892F089597555D
:10796000892F08951F930E949F3C182F0E949F3CCF
:107970001295107F810F1F9108951F93182F882350
:1079800021F00E94763C1150E1F71F9108951F935A
:10799000182F0E94763C803249F0809103018F5F5E
:1079A000809303018530C1F01F9108958091C0003C
:1079B00085FFFCCF84E18093C6008091C00085FFE5
:1079C000FCCF1093C6008091C00085FFFCCF80E102
:1079D0008093C6001F910895E0910401F091050184
:1079E00009951F9108950E94763C803241F0809164
:1079F00003018F5F80930301853081F008958091AA
:107A0000C00085FFFCCF84E18093C6008091C00058
:107A100085FFFCCF80E18093C6000895E0910401CA
:107A2000F09105010995089540E951E08823A1F0FE
:107A30002D9A28EE33E0FA013197F1F721503040CA
:107A4000D1F72D9828EE33E0FA013197F1F7215064
:107A50003040D1F7815061F708953F924F925F9285
:107A60006F927F928F929F92AF92BF92CF92DF924E
:107A7000EF92FF920F931F93CF93DF93000080E16B
:107A80008093C4001092C50088E18093C10086E015
:107A90008093C2005098589A259A81E00E94143D24
:107AA00024E1F22E9EE1E92E85E9D82E0FE0C02ECA
:107AB00010E1B12EAA24A394B1E49B2EA6E58A2E50
:107AC000F2E57F2EE0E26E2E79E4572E63E5462E36
:107AD00050E5352E0E94763C8033B1F18133B9F107
:107AE000803409F46FC0813409F476C0823409F41B
:107AF00085C0853409F488C0803531F1823521F1A3
:107B0000813511F1853509F485C0863509F48DC0BC
:107B1000843609F496C0843709F403C1853709F423
:107B200072C1863709F466C0809103018F5F80932C
:107B30000301853079F6E0910401F0910501099582
:107B40000E94763C803351F60E94F33CC3CF0E94E2
:107B5000763C803249F78091C00085FFFCCFF092DF
:107B6000C6008091C00085FFFCCF9092C600809136
:107B7000C00085FFFCCF8092C6008091C00085FFC9
:107B8000FCCF7092C6008091C00085FFFCCF609250
:107B9000C6008091C00085FFFCCF5092C600809146
:107BA000C00085FFFCCF4092C6008091C00085FFD9
:107BB000FCCF3092C6008091C00085FFFCCFB09210
:107BC000C60088CF0E94763C863808F4BDCF0E945C
:107BD000763C0E94F33C7ECF0E94763C803809F4CC
:107BE0009CC0813809F40BC1823809F43CC1883942
:107BF00009F48FC080E00E94C73C6CCF84E10E94F2
:107C0000BD3C0E94F33C66CF85E00E94BD3C0E94D3
:107C1000F33C60CF0E94763C809306010E94763C44
:107C2000809307010E94F33C55CF0E94763C80333D
:107C300009F41DC183E00E94BD3C80E00E94C73C66
:107C400049CF0E94763C809309020E94763C809343
:107C5000080280910C028E7F80930C020E94763C79
:107C6000853409F415C18091080290910902892B8D
:107C700089F000E010E00E94763CF801E85FFE4FDA
:107C800080830F5F1F4F80910802909109020817AF
:107C9000190788F30E94763C803209F045CF809125
:107CA0000C0280FF01C16091060170910701660F0F
:107CB000771F7093070160930601A0910802B091AD
:107CC00009021097C9F0E8E0F1E09B01AD014E0F09
:107CD0005F1FF999FECF32BD21BD819180BDFA9A17
:107CE000F99A2F5F3F4FE417F50799F76A0F7B1F4B
:107CF00070930701609306018091C00085FFFCCF5F
:107D0000F092C6008091C00085FFFCCFB092C60003
:107D1000E1CE83E00E94C73CDDCE82E00E94C73CFA
:107D2000D9CE0E94763C809309020E94763C8093D3
:107D300008028091060190910701880F991F909386
:107D40000701809306010E94763C853409F4A6C0A1
:107D500080910C028E7F80930C020E94763C8032D0
:107D600009F0B8CE8091C00085FFFCCFF092C6002C
:107D7000609108027091090261157105B9F140E046
:107D800050E080910C02A82FA170B82FB27011C0E2
:107D9000BB2309F45CC0E0910601F0910701319624
:107DA000F0930701E09306014F5F5F4F46175707B7
:107DB000E8F4AA2369F3F999FECF209106013091E6
:107DC000070132BD21BDF89A90B58091C00085FFB2
:107DD000FCCF9093C6002F5F3F4F30930701209355
:107DE00006014F5F5F4F4617570718F38091C00099
:107DF00085FDE5CE8091C00085FFF8CFE0CE81E023
:107E00000E94C73C67CE0E94763C803209F08CCE3F
:107E10008091C00085FFFCCFF092C6008091C00029
:107E200085FFFCCFE092C6008091C00085FFFCCFAB
:107E3000D092C6008091C00085FFFCCFC092C600E2
:107E40008091C00085FFFCCFB092C60043CEE09188
:107E50000601F091070194918091C00085FFFCCF4D
:107E60009093C6009CCF80E10E94C73C33CE0E9415
:107E7000763C0E94763C182F0E94763C112309F430
:107E800083C0113009F484C08FE00E94C73C22CE29
:107E900080910C02816080930C02E5CE80910C02EF
:107EA000816080930C0259CF809107018823880F4D
:107EB000880B8A2180930B02809106019091070123
:107EC000880F991F90930701809306018091080203
:107ED00080FF09C080910802909109020196909359
:107EE000090280930802F894F999FECF1127E091D6
:107EF0000601F0910701C8E0D1E08091080290915D
:107F00000902103091F40091570001700130D9F34B
:107F100003E000935700E89500915700017001308D
:107F2000D9F301E100935700E89509901990009169
:107F3000570001700130D9F301E000935700E89534
:107F40001395103498F011270091570001700130FB
:107F5000D9F305E000935700E895009157000170B0
:107F60000130D9F301E100935700E895329602976A
:107F700009F0C7CF103011F00296E5CF112480919F
:107F8000C00085FFB9CEBCCE8EE10E94C73CA2CD19
:0C7F900085E90E94C73C9ECDF894FFCF0D
:027F9C00800063
:040000030000780081
:00000001FF
